{
  "contractName": "CyberIdentity",
  "abi": [
    {
      "anonymous": false,
      "inputs": [
        {
          "indexed": true,
          "internalType": "address",
          "name": "user",
          "type": "address"
        },
        {
          "indexed": false,
          "internalType": "string",
          "name": "didDocument",
          "type": "string"
        }
      ],
      "name": "DIDRegistered",
      "type": "event"
    },
    {
      "anonymous": false,
      "inputs": [
        {
          "indexed": true,
          "internalType": "address",
          "name": "user",
          "type": "address"
        },
        {
          "indexed": false,
          "internalType": "bytes32",
          "name": "sessionHash",
          "type": "bytes32"
        },
        {
          "indexed": false,
          "internalType": "uint256",
          "name": "timestamp",
          "type": "uint256"
        }
      ],
      "name": "SessionLogged",
      "type": "event"
    },
    {
      "inputs": [
        {
          "internalType": "address",
          "name": "",
          "type": "address"
        }
      ],
      "name": "didDoc",
      "outputs": [
        {
          "internalType": "string",
          "name": "",
          "type": "string"
        }
      ],
      "stateMutability": "view",
      "type": "function",
      "constant": true
    },
    {
      "inputs": [
        {
          "internalType": "address",
          "name": "",
          "type": "address"
        }
      ],
      "name": "registered",
      "outputs": [
        {
          "internalType": "bool",
          "name": "",
          "type": "bool"
        }
      ],
      "stateMutability": "view",
      "type": "function",
      "constant": true
    },
    {
      "inputs": [
        {
          "internalType": "address",
          "name": "",
          "type": "address"
        },
        {
          "internalType": "uint256",
          "name": "",
          "type": "uint256"
        }
      ],
      "name": "sessions",
      "outputs": [
        {
          "internalType": "bytes32",
          "name": "hash",
          "type": "bytes32"
        },
        {
          "internalType": "uint256",
          "name": "timestamp",
          "type": "uint256"
        }
      ],
      "stateMutability": "view",
      "type": "function",
      "constant": true
    },
    {
      "inputs": [
        {
          "internalType": "string",
          "name": "didDocument",
          "type": "string"
        }
      ],
      "name": "registerDID",
      "outputs": [],
      "stateMutability": "nonpayable",
      "type": "function"
    },
    {
      "inputs": [
        {
          "internalType": "address",
          "name": "user",
          "type": "address"
        }
      ],
      "name": "verifyDID",
      "outputs": [
        {
          "internalType": "bool",
          "name": "",
          "type": "bool"
        }
      ],
      "stateMutability": "view",
      "type": "function",
      "constant": true
    },
    {
      "inputs": [
        {
          "internalType": "bytes32",
          "name": "sessionHash",
          "type": "bytes32"
        }
      ],
      "name": "logSession",
      "outputs": [],
      "stateMutability": "nonpayable",
      "type": "function"
    },
    {
      "inputs": [
        {
          "internalType": "address",
          "name": "user",
          "type": "address"
        }
      ],
      "name": "getSessionCount",
      "outputs": [
        {
          "internalType": "uint256",
          "name": "",
          "type": "uint256"
        }
      ],
      "stateMutability": "view",
      "type": "function",
      "constant": true
    }
  ],
  "bytecode": "0x608060405234801561000f575f80fd5b50610df58061001d5f395ff3fe608060405234801561000f575f80fd5b506004361061007b575f3560e01c806395d5a3f01161005957806395d5a3f0146100e7578063a0c3ba1a14610117578063a367386614610148578063b2dd5c07146101785761007b565b80632c9539821461007f5780633aac30211461009b578063570810e2146100cb575b5f80fd5b61009960048036038101906100949190610657565b6101a8565b005b6100b560048036038101906100b091906106dc565b61030f565b6040516100c2919061071f565b60405180910390f35b6100e560048036038101906100e09190610874565b610358565b005b61010160048036038101906100fc91906106dc565b6104d1565b60405161010e91906108d5565b60405180910390f35b610131600480360381019061012c9190610918565b610522565b60405161013f929190610965565b60405180910390f35b610162600480360381019061015d91906106dc565b61055c565b60405161016f9190610a06565b60405180910390f35b610192600480360381019061018d91906106dc565b6105f7565b60405161019f91906108d5565b60405180910390f35b5f803373ffffffffffffffffffffffffffffffffffffffff1673ffffffffffffffffffffffffffffffffffffffff1681526020019081526020015f205f9054906101000a900460ff16610230576040517f08c379a000000000000000000000000000000000000000000000000000000000815260040161022790610a70565b60405180910390fd5b60025f3373ffffffffffffffffffffffffffffffffffffffff1673ffffffffffffffffffffffffffffffffffffffff1681526020019081526020015f20604051806040016040528083815260200142815250908060018154018082558091505060019003905f5260205f2090600202015f909190919091505f820151815f01556020820151816001015550503373ffffffffffffffffffffffffffffffffffffffff167f9dbbc6436afa01eb37dcf9566ea4f7ba0ac60eac87a20ea1c889ed4ba0da9e7f8242604051610304929190610965565b60405180910390a250565b5f60025f8373ffffffffffffffffffffffffffffffffffffffff1673ffffffffffffffffffffffffffffffffffffffff1681526020019081526020015f20805490509050919050565b5f803373ffffffffffffffffffffffffffffffffffffffff1673ffffffffffffffffffffffffffffffffffffffff1681526020019081526020015f205f9054906101000a900460ff16156103e1576040517f08c379a00000000000000000000000000000000000000000000000000000000081526004016103d890610ad8565b60405180910390fd5b60015f803373ffffffffffffffffffffffffffffffffffffffff1673ffffffffffffffffffffffffffffffffffffffff1681526020019081526020015f205f6101000a81548160ff0219169083151502179055508060015f3373ffffffffffffffffffffffffffffffffffffffff1673ffffffffffffffffffffffffffffffffffffffff1681526020019081526020015f20908161047f9190610cf0565b503373ffffffffffffffffffffffffffffffffffffffff167fbfab59a7af78dfc896c3096604749fcee2db2e850297de42de5e6369f54bd3fb826040516104c69190610a06565b60405180910390a250565b5f805f8373ffffffffffffffffffffffffffffffffffffffff1673ffffffffffffffffffffffffffffffffffffffff1681526020019081526020015f205f9054906101000a900460ff169050919050565b6002602052815f5260405f20818154811061053b575f80fd5b905f5260205f2090600202015f9150915050805f0154908060010154905082565b6001602052805f5260405f205f91509050805461057890610b23565b80601f01602080910402602001604051908101604052809291908181526020018280546105a490610b23565b80156105ef5780601f106105c6576101008083540402835291602001916105ef565b820191905f5260205f20905b8154815290600101906020018083116105d257829003601f168201915b505050505081565b5f602052805f5260405f205f915054906101000a900460ff1681565b5f604051905090565b5f80fd5b5f80fd5b5f819050919050565b61063681610624565b8114610640575f80fd5b50565b5f813590506106518161062d565b92915050565b5f6020828403121561066c5761066b61061c565b5b5f61067984828501610643565b91505092915050565b5f73ffffffffffffffffffffffffffffffffffffffff82169050919050565b5f6106ab82610682565b9050919050565b6106bb816106a1565b81146106c5575f80fd5b50565b5f813590506106d6816106b2565b92915050565b5f602082840312156106f1576106f061061c565b5b5f6106fe848285016106c8565b91505092915050565b5f819050919050565b61071981610707565b82525050565b5f6020820190506107325f830184610710565b92915050565b5f80fd5b5f80fd5b5f601f19601f8301169050919050565b7f4e487b71000000000000000000000000000000000000000000000000000000005f52604160045260245ffd5b61078682610740565b810181811067ffffffffffffffff821117156107a5576107a4610750565b5b80604052505050565b5f6107b7610613565b90506107c3828261077d565b919050565b5f67ffffffffffffffff8211156107e2576107e1610750565b5b6107eb82610740565b9050602081019050919050565b828183375f83830152505050565b5f610818610813846107c8565b6107ae565b9050828152602081018484840111156108345761083361073c565b5b61083f8482856107f8565b509392505050565b5f82601f83011261085b5761085a610738565b5b813561086b848260208601610806565b91505092915050565b5f602082840312156108895761088861061c565b5b5f82013567ffffffffffffffff8111156108a6576108a5610620565b5b6108b284828501610847565b91505092915050565b5f8115159050919050565b6108cf816108bb565b82525050565b5f6020820190506108e85f8301846108c6565b92915050565b6108f781610707565b8114610901575f80fd5b50565b5f81359050610912816108ee565b92915050565b5f806040838503121561092e5761092d61061c565b5b5f61093b858286016106c8565b925050602061094c85828601610904565b9150509250929050565b61095f81610624565b82525050565b5f6040820190506109785f830185610956565b6109856020830184610710565b9392505050565b5f81519050919050565b5f82825260208201905092915050565b5f5b838110156109c35780820151818401526020810190506109a8565b5f8484015250505050565b5f6109d88261098c565b6109e28185610996565b93506109f28185602086016109a6565b6109fb81610740565b840191505092915050565b5f6020820190508181035f830152610a1e81846109ce565b905092915050565b7f444944206e6f74207265676973746572656400000000000000000000000000005f82015250565b5f610a5a601283610996565b9150610a6582610a26565b602082019050919050565b5f6020820190508181035f830152610a8781610a4e565b9050919050565b7f44494420616c72656164792072656769737465726564000000000000000000005f82015250565b5f610ac2601683610996565b9150610acd82610a8e565b602082019050919050565b5f6020820190508181035f830152610aef81610ab6565b9050919050565b7f4e487b71000000000000000000000000000000000000000000000000000000005f52602260045260245ffd5b5f6002820490506001821680610b3a57607f821691505b602082108103610b4d57610b4c610af6565b5b50919050565b5f819050815f5260205f209050919050565b5f6020601f8301049050919050565b5f82821b905092915050565b5f60088302610baf7fffffffffffffffffffffffffffffffffffffffffffffffffffffffffffffffff82610b74565b610bb98683610b74565b95508019841693508086168417925050509392505050565b5f819050919050565b5f610bf4610bef610bea84610707565b610bd1565b610707565b9050919050565b5f819050919050565b610c0d83610bda565b610c21610c1982610bfb565b848454610b80565b825550505050565b5f90565b610c35610c29565b610c40818484610c04565b505050565b5b81811015610c6357610c585f82610c2d565b600181019050610c46565b5050565b601f821115610ca857610c7981610b53565b610c8284610b65565b81016020851015610c91578190505b610ca5610c9d85610b65565b830182610c45565b50505b505050565b5f82821c905092915050565b5f610cc85f1984600802610cad565b1980831691505092915050565b5f610ce08383610cb9565b9150826002028217905092915050565b610cf98261098c565b67ffffffffffffffff811115610d1257610d11610750565b5b610d1c8254610b23565b610d27828285610c67565b5f60209050601f831160018114610d58575f8415610d46578287015190505b610d508582610cd5565b865550610db7565b601f198416610d6686610b53565b5f5b82811015610d8d57848901518255600182019150602085019450602081019050610d68565b86831015610daa5784890151610da6601f891682610cb9565b8355505b6001600288020188555050505b50505050505056fea26469706673582212201eee72256f3b30d02c5f270f54f1c829114d4fe9cb6a0febd35f454d027dd6fc64736f6c63430008150033",
  "immutableReferences": {},
  "source": "// SPDX-License-Identifier: MIT\r\npragma solidity ^0.8.0;\r\n\r\ncontract CyberIdentity {\r\n    struct Session { bytes32 hash; uint256 timestamp; }\r\n\r\n    mapping(address => bool) public registered;\r\n    mapping(address => string) public didDoc;\r\n    mapping(address => Session[]) public sessions;\r\n\r\n    event DIDRegistered(address indexed user, string didDocument);\r\n    event SessionLogged(address indexed user, bytes32 sessionHash, uint256 timestamp);\r\n\r\n    function registerDID(string memory didDocument) public {\r\n        require(!registered[msg.sender], \"DID already registered\");\r\n        registered[msg.sender] = true;\r\n        didDoc[msg.sender] = didDocument;\r\n        emit DIDRegistered(msg.sender, didDocument);\r\n    }\r\n\r\n    function verifyDID(address user) public view returns(bool) {\r\n        return registered[user];\r\n    }\r\n\r\n    function logSession(bytes32 sessionHash) public {\r\n        require(registered[msg.sender], \"DID not registered\");\r\n        sessions[msg.sender].push(Session(sessionHash, block.timestamp));\r\n        emit SessionLogged(msg.sender, sessionHash, block.timestamp);\r\n    }\r\n\r\n    function getSessionCount(address user) public view returns(uint256) {\r\n        return sessions[user].length;\r\n    }\r\n}\r\n",
  "sourcePath": "C:\\users\\asus\\OneDrive\\Desktop\\cppfiles\\Walmart_CyberSec\\blockchain\\contracts\\CyberIdentity.sol",
  "compiler": {
    "name": "solc",
    "version": "0.8.21+commit.d9974bed.Emscripten.clang"
  },
  "schemaVersion": "3.4.16",
  "updatedAt": "2025-07-09T12:39:31.870Z",
  "networkType": "ethereum",
  "devdoc": {
    "kind": "dev",
    "methods": {},
    "version": 1
  },
  "userdoc": {
    "kind": "user",
    "methods": {},
    "version": 1
  }
}